{
    "_format": "hh-sol-artifact-1",
    "contractName": "XCLNft",
    "sourceName": "contracts/XCLNft.sol",
    "abi": [
        {
            "inputs": [],
            "stateMutability": "nonpayable",
            "type": "constructor"
        },
        {
            "inputs": [
                {
                    "internalType": "address",
                    "name": "sender",
                    "type": "address"
                },
                {
                    "internalType": "uint256",
                    "name": "tokenId",
                    "type": "uint256"
                },
                {
                    "internalType": "address",
                    "name": "owner",
                    "type": "address"
                }
            ],
            "name": "ERC721IncorrectOwner",
            "type": "error"
        },
        {
            "inputs": [
                {
                    "internalType": "address",
                    "name": "operator",
                    "type": "address"
                },
                {
                    "internalType": "uint256",
                    "name": "tokenId",
                    "type": "uint256"
                }
            ],
            "name": "ERC721InsufficientApproval",
            "type": "error"
        },
        {
            "inputs": [
                {
                    "internalType": "address",
                    "name": "approver",
                    "type": "address"
                }
            ],
            "name": "ERC721InvalidApprover",
            "type": "error"
        },
        {
            "inputs": [
                {
                    "internalType": "address",
                    "name": "operator",
                    "type": "address"
                }
            ],
            "name": "ERC721InvalidOperator",
            "type": "error"
        },
        {
            "inputs": [
                {
                    "internalType": "address",
                    "name": "owner",
                    "type": "address"
                }
            ],
            "name": "ERC721InvalidOwner",
            "type": "error"
        },
        {
            "inputs": [
                {
                    "internalType": "address",
                    "name": "receiver",
                    "type": "address"
                }
            ],
            "name": "ERC721InvalidReceiver",
            "type": "error"
        },
        {
            "inputs": [
                {
                    "internalType": "address",
                    "name": "sender",
                    "type": "address"
                }
            ],
            "name": "ERC721InvalidSender",
            "type": "error"
        },
        {
            "inputs": [
                {
                    "internalType": "uint256",
                    "name": "tokenId",
                    "type": "uint256"
                }
            ],
            "name": "ERC721NonexistentToken",
            "type": "error"
        },
        {
            "anonymous": false,
            "inputs": [
                {
                    "indexed": true,
                    "internalType": "address",
                    "name": "owner",
                    "type": "address"
                },
                {
                    "indexed": true,
                    "internalType": "address",
                    "name": "approved",
                    "type": "address"
                },
                {
                    "indexed": true,
                    "internalType": "uint256",
                    "name": "tokenId",
                    "type": "uint256"
                }
            ],
            "name": "Approval",
            "type": "event"
        },
        {
            "anonymous": false,
            "inputs": [
                {
                    "indexed": true,
                    "internalType": "address",
                    "name": "owner",
                    "type": "address"
                },
                {
                    "indexed": true,
                    "internalType": "address",
                    "name": "operator",
                    "type": "address"
                },
                {
                    "indexed": false,
                    "internalType": "bool",
                    "name": "approved",
                    "type": "bool"
                }
            ],
            "name": "ApprovalForAll",
            "type": "event"
        },
        {
            "anonymous": false,
            "inputs": [
                {
                    "indexed": false,
                    "internalType": "uint256",
                    "name": "_fromTokenId",
                    "type": "uint256"
                },
                {
                    "indexed": false,
                    "internalType": "uint256",
                    "name": "_toTokenId",
                    "type": "uint256"
                }
            ],
            "name": "BatchMetadataUpdate",
            "type": "event"
        },
        {
            "anonymous": false,
            "inputs": [
                {
                    "indexed": false,
                    "internalType": "uint256",
                    "name": "_tokenId",
                    "type": "uint256"
                }
            ],
            "name": "MetadataUpdate",
            "type": "event"
        },
        {
            "anonymous": false,
            "inputs": [
                {
                    "indexed": true,
                    "internalType": "address",
                    "name": "from",
                    "type": "address"
                },
                {
                    "indexed": true,
                    "internalType": "address",
                    "name": "to",
                    "type": "address"
                },
                {
                    "indexed": true,
                    "internalType": "uint256",
                    "name": "tokenId",
                    "type": "uint256"
                }
            ],
            "name": "Transfer",
            "type": "event"
        },
        {
            "inputs": [
                {
                    "internalType": "address",
                    "name": "to",
                    "type": "address"
                },
                {
                    "internalType": "uint256",
                    "name": "tokenId",
                    "type": "uint256"
                }
            ],
            "name": "approve",
            "outputs": [],
            "stateMutability": "nonpayable",
            "type": "function"
        },
        {
            "inputs": [
                {
                    "internalType": "address",
                    "name": "owner",
                    "type": "address"
                }
            ],
            "name": "balanceOf",
            "outputs": [
                {
                    "internalType": "uint256",
                    "name": "",
                    "type": "uint256"
                }
            ],
            "stateMutability": "view",
            "type": "function"
        },
        {
            "inputs": [
                {
                    "internalType": "uint256",
                    "name": "tokenId",
                    "type": "uint256"
                }
            ],
            "name": "getApproved",
            "outputs": [
                {
                    "internalType": "address",
                    "name": "",
                    "type": "address"
                }
            ],
            "stateMutability": "view",
            "type": "function"
        },
        {
            "inputs": [
                {
                    "internalType": "address",
                    "name": "owner",
                    "type": "address"
                },
                {
                    "internalType": "address",
                    "name": "operator",
                    "type": "address"
                }
            ],
            "name": "isApprovedForAll",
            "outputs": [
                {
                    "internalType": "bool",
                    "name": "",
                    "type": "bool"
                }
            ],
            "stateMutability": "view",
            "type": "function"
        },
        {
            "inputs": [],
            "name": "name",
            "outputs": [
                {
                    "internalType": "string",
                    "name": "",
                    "type": "string"
                }
            ],
            "stateMutability": "view",
            "type": "function"
        },
        {
            "inputs": [],
            "name": "nftxAddr",
            "outputs": [
                {
                    "internalType": "address",
                    "name": "",
                    "type": "address"
                }
            ],
            "stateMutability": "view",
            "type": "function"
        },
        {
            "inputs": [
                {
                    "internalType": "uint256",
                    "name": "tokenId",
                    "type": "uint256"
                }
            ],
            "name": "ownerOf",
            "outputs": [
                {
                    "internalType": "address",
                    "name": "",
                    "type": "address"
                }
            ],
            "stateMutability": "view",
            "type": "function"
        },
        {
            "inputs": [
                {
                    "internalType": "address",
                    "name": "to",
                    "type": "address"
                },
                {
                    "internalType": "string",
                    "name": "uri",
                    "type": "string"
                }
            ],
            "name": "safeMint",
            "outputs": [],
            "stateMutability": "nonpayable",
            "type": "function"
        },
        {
            "inputs": [
                {
                    "internalType": "address",
                    "name": "from",
                    "type": "address"
                },
                {
                    "internalType": "address",
                    "name": "to",
                    "type": "address"
                },
                {
                    "internalType": "uint256",
                    "name": "tokenId",
                    "type": "uint256"
                }
            ],
            "name": "safeTransferFrom",
            "outputs": [],
            "stateMutability": "nonpayable",
            "type": "function"
        },
        {
            "inputs": [
                {
                    "internalType": "address",
                    "name": "from",
                    "type": "address"
                },
                {
                    "internalType": "address",
                    "name": "to",
                    "type": "address"
                },
                {
                    "internalType": "uint256",
                    "name": "tokenId",
                    "type": "uint256"
                },
                {
                    "internalType": "bytes",
                    "name": "data",
                    "type": "bytes"
                }
            ],
            "name": "safeTransferFrom",
            "outputs": [],
            "stateMutability": "nonpayable",
            "type": "function"
        },
        {
            "inputs": [
                {
                    "internalType": "address",
                    "name": "operator",
                    "type": "address"
                },
                {
                    "internalType": "bool",
                    "name": "approved",
                    "type": "bool"
                }
            ],
            "name": "setApprovalForAll",
            "outputs": [],
            "stateMutability": "nonpayable",
            "type": "function"
        },
        {
            "inputs": [
                {
                    "internalType": "bytes4",
                    "name": "interfaceId",
                    "type": "bytes4"
                }
            ],
            "name": "supportsInterface",
            "outputs": [
                {
                    "internalType": "bool",
                    "name": "",
                    "type": "bool"
                }
            ],
            "stateMutability": "view",
            "type": "function"
        },
        {
            "inputs": [],
            "name": "symbol",
            "outputs": [
                {
                    "internalType": "string",
                    "name": "",
                    "type": "string"
                }
            ],
            "stateMutability": "view",
            "type": "function"
        },
        {
            "inputs": [
                {
                    "internalType": "uint256",
                    "name": "tokenId",
                    "type": "uint256"
                }
            ],
            "name": "tokenURI",
            "outputs": [
                {
                    "internalType": "string",
                    "name": "",
                    "type": "string"
                }
            ],
            "stateMutability": "view",
            "type": "function"
        },
        {
            "inputs": [
                {
                    "internalType": "address",
                    "name": "from",
                    "type": "address"
                },
                {
                    "internalType": "address",
                    "name": "to",
                    "type": "address"
                },
                {
                    "internalType": "uint256",
                    "name": "tokenId",
                    "type": "uint256"
                }
            ],
            "name": "transferFrom",
            "outputs": [],
            "stateMutability": "nonpayable",
            "type": "function"
        }
    ],
    "bytecode": "0x608060405234801561001057600080fd5b506040518060400160405280600681526020017f58434c4e667400000000000000000000000000000000000000000000000000008152506040518060400160405280600681526020017f58434c4e46540000000000000000000000000000000000000000000000000000815250816000908161008c91906102f4565b50806001908161009c91906102f4565b5050506103c6565b600081519050919050565b7f4e487b7100000000000000000000000000000000000000000000000000000000600052604160045260246000fd5b7f4e487b7100000000000000000000000000000000000000000000000000000000600052602260045260246000fd5b6000600282049050600182168061012557607f821691505b602082108103610138576101376100de565b5b50919050565b60008190508160005260206000209050919050565b60006020601f8301049050919050565b600082821b905092915050565b6000600883026101a07fffffffffffffffffffffffffffffffffffffffffffffffffffffffffffffffff82610163565b6101aa8683610163565b95508019841693508086168417925050509392505050565b6000819050919050565b6000819050919050565b60006101f16101ec6101e7846101c2565b6101cc565b6101c2565b9050919050565b6000819050919050565b61020b836101d6565b61021f610217826101f8565b848454610170565b825550505050565b600090565b610234610227565b61023f818484610202565b505050565b5b818110156102635761025860008261022c565b600181019050610245565b5050565b601f8211156102a8576102798161013e565b61028284610153565b81016020851015610291578190505b6102a561029d85610153565b830182610244565b50505b505050565b600082821c905092915050565b60006102cb600019846008026102ad565b1980831691505092915050565b60006102e483836102ba565b9150826002028217905092915050565b6102fd826100a4565b67ffffffffffffffff811115610316576103156100af565b5b610320825461010d565b61032b828285610267565b600060209050601f83116001811461035e576000841561034c578287015190505b61035685826102d8565b8655506103be565b601f19841661036c8661013e565b60005b828110156103945784890151825560018201915060208501945060208101905061036f565b868310156103b157848901516103ad601f8916826102ba565b8355505b6001600288020188555050505b505050505050565b612459806103d56000396000f3fe608060405234801561001057600080fd5b50600436106100f55760003560e01c80636352211e11610097578063b88d4fde11610066578063b88d4fde14610284578063c87b56dd146102a0578063d204c45e146102d0578063e985e9c5146102ec576100f5565b80636352211e146101ea57806370a082311461021a57806395d89b411461024a578063a22cb46514610268576100f5565b8063095ea7b3116100d3578063095ea7b3146101785780631339db131461019457806323b872dd146101b257806342842e0e146101ce576100f5565b806301ffc9a7146100fa57806306fdde031461012a578063081812fc14610148575b600080fd5b610114600480360381019061010f91906118b1565b61031c565b60405161012191906118f9565b60405180910390f35b61013261032e565b60405161013f91906119a4565b60405180910390f35b610162600480360381019061015d91906119fc565b6103c0565b60405161016f9190611a6a565b60405180910390f35b610192600480360381019061018d9190611ab1565b6103dc565b005b61019c6103f2565b6040516101a99190611a6a565b60405180910390f35b6101cc60048036038101906101c79190611af1565b610418565b005b6101e860048036038101906101e39190611af1565b61051a565b005b61020460048036038101906101ff91906119fc565b61053a565b6040516102119190611a6a565b60405180910390f35b610234600480360381019061022f9190611b44565b61054c565b6040516102419190611b80565b60405180910390f35b610252610606565b60405161025f91906119a4565b60405180910390f35b610282600480360381019061027d9190611bc7565b610698565b005b61029e60048036038101906102999190611d3c565b6106ae565b005b6102ba60048036038101906102b591906119fc565b6106d3565b6040516102c791906119a4565b60405180910390f35b6102ea60048036038101906102e59190611e60565b6106e5565b005b61030660048036038101906103019190611ebc565b610719565b60405161031391906118f9565b60405180910390f35b6000610327826107ad565b9050919050565b60606000805461033d90611f2b565b80601f016020809104026020016040519081016040528092919081815260200182805461036990611f2b565b80156103b65780601f1061038b576101008083540402835291602001916103b6565b820191906000526020600020905b81548152906001019060200180831161039957829003601f168201915b5050505050905090565b60006103cb8261080e565b506103d582610896565b9050919050565b6103ee82826103e96108d3565b6108db565b5050565b600860009054906101000a900473ffffffffffffffffffffffffffffffffffffffff1681565b600073ffffffffffffffffffffffffffffffffffffffff168273ffffffffffffffffffffffffffffffffffffffff160361048a5760006040517f64a0ae920000000000000000000000000000000000000000000000000000000081526004016104819190611a6a565b60405180910390fd5b600061049e83836104996108d3565b6108ed565b90508373ffffffffffffffffffffffffffffffffffffffff168173ffffffffffffffffffffffffffffffffffffffff1614610514578382826040517f64283d7b00000000000000000000000000000000000000000000000000000000815260040161050b93929190611f5c565b60405180910390fd5b50505050565b610535838383604051806020016040528060008152506106ae565b505050565b60006105458261080e565b9050919050565b60008073ffffffffffffffffffffffffffffffffffffffff168273ffffffffffffffffffffffffffffffffffffffff16036105bf5760006040517f89c62b640000000000000000000000000000000000000000000000000000000081526004016105b69190611a6a565b60405180910390fd5b600360008373ffffffffffffffffffffffffffffffffffffffff1673ffffffffffffffffffffffffffffffffffffffff168152602001908152602001600020549050919050565b60606001805461061590611f2b565b80601f016020809104026020016040519081016040528092919081815260200182805461064190611f2b565b801561068e5780601f106106635761010080835404028352916020019161068e565b820191906000526020600020905b81548152906001019060200180831161067157829003601f168201915b5050505050905090565b6106aa6106a36108d3565b8383610b07565b5050565b6106b9848484610418565b6106cd6106c46108d3565b85858585610c76565b50505050565b60606106de82610e27565b9050919050565b6000600760008154809291906106fa90611fc2565b91905055905061070a8382610f3a565b6107148183610f58565b505050565b6000600560008473ffffffffffffffffffffffffffffffffffffffff1673ffffffffffffffffffffffffffffffffffffffff16815260200190815260200160002060008373ffffffffffffffffffffffffffffffffffffffff1673ffffffffffffffffffffffffffffffffffffffff16815260200190815260200160002060009054906101000a900460ff16905092915050565b6000634906490660e01b7bffffffffffffffffffffffffffffffffffffffffffffffffffffffff1916827bffffffffffffffffffffffffffffffffffffffffffffffffffffffff19161480610807575061080682610fb4565b5b9050919050565b60008061081a83611096565b9050600073ffffffffffffffffffffffffffffffffffffffff168173ffffffffffffffffffffffffffffffffffffffff160361088d57826040517f7e2732890000000000000000000000000000000000000000000000000000000081526004016108849190611b80565b60405180910390fd5b80915050919050565b60006004600083815260200190815260200160002060009054906101000a900473ffffffffffffffffffffffffffffffffffffffff169050919050565b600033905090565b6108e883838360016110d3565b505050565b6000806108f984611096565b9050600073ffffffffffffffffffffffffffffffffffffffff168373ffffffffffffffffffffffffffffffffffffffff161461093b5761093a818486611298565b5b600073ffffffffffffffffffffffffffffffffffffffff168173ffffffffffffffffffffffffffffffffffffffff16146109cc5761097d6000856000806110d3565b6001600360008373ffffffffffffffffffffffffffffffffffffffff1673ffffffffffffffffffffffffffffffffffffffff168152602001908152602001600020600082825403925050819055505b600073ffffffffffffffffffffffffffffffffffffffff168573ffffffffffffffffffffffffffffffffffffffff1614610a4f576001600360008773ffffffffffffffffffffffffffffffffffffffff1673ffffffffffffffffffffffffffffffffffffffff168152602001908152602001600020600082825401925050819055505b846002600086815260200190815260200160002060006101000a81548173ffffffffffffffffffffffffffffffffffffffff021916908373ffffffffffffffffffffffffffffffffffffffff160217905550838573ffffffffffffffffffffffffffffffffffffffff168273ffffffffffffffffffffffffffffffffffffffff167fddf252ad1be2c89b69c2b068fc378daa952ba7f163c4a11628f55a4df523b3ef60405160405180910390a4809150509392505050565b600073ffffffffffffffffffffffffffffffffffffffff168273ffffffffffffffffffffffffffffffffffffffff1603610b7857816040517f5b08ba18000000000000000000000000000000000000000000000000000000008152600401610b6f9190611a6a565b60405180910390fd5b80600560008573ffffffffffffffffffffffffffffffffffffffff1673ffffffffffffffffffffffffffffffffffffffff16815260200190815260200160002060008473ffffffffffffffffffffffffffffffffffffffff1673ffffffffffffffffffffffffffffffffffffffff16815260200190815260200160002060006101000a81548160ff0219169083151502179055508173ffffffffffffffffffffffffffffffffffffffff168373ffffffffffffffffffffffffffffffffffffffff167f17307eab39ab6107e8899845ad3d59bd9653f200f220920489ca2b5937696c3183604051610c6991906118f9565b60405180910390a3505050565b60008373ffffffffffffffffffffffffffffffffffffffff163b1115610e20578273ffffffffffffffffffffffffffffffffffffffff1663150b7a02868685856040518563ffffffff1660e01b8152600401610cd5949392919061205f565b6020604051808303816000875af1925050508015610d1157506040513d601f19601f82011682018060405250810190610d0e91906120c0565b60015b610d95573d8060008114610d41576040519150601f19603f3d011682016040523d82523d6000602084013e610d46565b606091505b506000815103610d8d57836040517f64a0ae92000000000000000000000000000000000000000000000000000000008152600401610d849190611a6a565b60405180910390fd5b805181602001fd5b63150b7a0260e01b7bffffffffffffffffffffffffffffffffffffffffffffffffffffffff1916817bffffffffffffffffffffffffffffffffffffffffffffffffffffffff191614610e1e57836040517f64a0ae92000000000000000000000000000000000000000000000000000000008152600401610e159190611a6a565b60405180910390fd5b505b5050505050565b6060610e328261080e565b506000600660008481526020019081526020016000208054610e5390611f2b565b80601f0160208091040260200160405190810160405280929190818152602001828054610e7f90611f2b565b8015610ecc5780601f10610ea157610100808354040283529160200191610ecc565b820191906000526020600020905b815481529060010190602001808311610eaf57829003601f168201915b505050505090506000610edd61135c565b90506000815103610ef2578192505050610f35565b600082511115610f27578082604051602001610f0f929190612129565b60405160208183030381529060405292505050610f35565b610f3084611373565b925050505b919050565b610f548282604051806020016040528060008152506113dc565b5050565b80600660008481526020019081526020016000209081610f7891906122f9565b507ff8e1a15aba9398e019f0b49df1a4fde98ee17ae345cb5f6b5e2c27f5033e8ce782604051610fa89190611b80565b60405180910390a15050565b60007f80ac58cd000000000000000000000000000000000000000000000000000000007bffffffffffffffffffffffffffffffffffffffffffffffffffffffff1916827bffffffffffffffffffffffffffffffffffffffffffffffffffffffff1916148061107f57507f5b5e139f000000000000000000000000000000000000000000000000000000007bffffffffffffffffffffffffffffffffffffffffffffffffffffffff1916827bffffffffffffffffffffffffffffffffffffffffffffffffffffffff1916145b8061108f575061108e82611400565b5b9050919050565b60006002600083815260200190815260200160002060009054906101000a900473ffffffffffffffffffffffffffffffffffffffff169050919050565b808061110c5750600073ffffffffffffffffffffffffffffffffffffffff168273ffffffffffffffffffffffffffffffffffffffff1614155b1561124057600061111c8461080e565b9050600073ffffffffffffffffffffffffffffffffffffffff168373ffffffffffffffffffffffffffffffffffffffff161415801561118757508273ffffffffffffffffffffffffffffffffffffffff168173ffffffffffffffffffffffffffffffffffffffff1614155b801561119a57506111988184610719565b155b156111dc57826040517fa9fbf51f0000000000000000000000000000000000000000000000000000000081526004016111d39190611a6a565b60405180910390fd5b811561123e57838573ffffffffffffffffffffffffffffffffffffffff168273ffffffffffffffffffffffffffffffffffffffff167f8c5be1e5ebec7d5bd14f71427d1e84f3dd0314c0f7b2291e5b200ac8c7c3b92560405160405180910390a45b505b836004600085815260200190815260200160002060006101000a81548173ffffffffffffffffffffffffffffffffffffffff021916908373ffffffffffffffffffffffffffffffffffffffff16021790555050505050565b6112a383838361146a565b61135757600073ffffffffffffffffffffffffffffffffffffffff168373ffffffffffffffffffffffffffffffffffffffff160361131857806040517f7e27328900000000000000000000000000000000000000000000000000000000815260040161130f9190611b80565b60405180910390fd5b81816040517f177e802f00000000000000000000000000000000000000000000000000000000815260040161134e9291906123cb565b60405180910390fd5b505050565b606060405180602001604052806000815250905090565b606061137e8261080e565b50600061138961135c565b905060008151116113a957604051806020016040528060008152506113d4565b806113b38461152b565b6040516020016113c4929190612129565b6040516020818303038152906040525b915050919050565b6113e683836115f9565b6113fb6113f16108d3565b6000858585610c76565b505050565b60007f01ffc9a7000000000000000000000000000000000000000000000000000000007bffffffffffffffffffffffffffffffffffffffffffffffffffffffff1916827bffffffffffffffffffffffffffffffffffffffffffffffffffffffff1916149050919050565b60008073ffffffffffffffffffffffffffffffffffffffff168373ffffffffffffffffffffffffffffffffffffffff161415801561152257508273ffffffffffffffffffffffffffffffffffffffff168473ffffffffffffffffffffffffffffffffffffffff1614806114e357506114e28484610719565b5b8061152157508273ffffffffffffffffffffffffffffffffffffffff1661150983610896565b73ffffffffffffffffffffffffffffffffffffffff16145b5b90509392505050565b60606000600161153a846116f2565b01905060008167ffffffffffffffff81111561155957611558611c11565b5b6040519080825280601f01601f19166020018201604052801561158b5781602001600182028036833780820191505090505b509050600082602001820190505b6001156115ee578080600190039150507f3031323334353637383961626364656600000000000000000000000000000000600a86061a8153600a85816115e2576115e16123f4565b5b04945060008503611599575b819350505050919050565b600073ffffffffffffffffffffffffffffffffffffffff168273ffffffffffffffffffffffffffffffffffffffff160361166b5760006040517f64a0ae920000000000000000000000000000000000000000000000000000000081526004016116629190611a6a565b60405180910390fd5b6000611679838360006108ed565b9050600073ffffffffffffffffffffffffffffffffffffffff168173ffffffffffffffffffffffffffffffffffffffff16146116ed5760006040517f73c6ac6e0000000000000000000000000000000000000000000000000000000081526004016116e49190611a6a565b60405180910390fd5b505050565b600080600090507a184f03e93ff9f4daa797ed6e38ed64bf6a1f0100000000000000008310611750577a184f03e93ff9f4daa797ed6e38ed64bf6a1f0100000000000000008381611746576117456123f4565b5b0492506040810190505b6d04ee2d6d415b85acef8100000000831061178d576d04ee2d6d415b85acef81000000008381611783576117826123f4565b5b0492506020810190505b662386f26fc1000083106117bc57662386f26fc1000083816117b2576117b16123f4565b5b0492506010810190505b6305f5e10083106117e5576305f5e10083816117db576117da6123f4565b5b0492506008810190505b612710831061180a576127108381611800576117ff6123f4565b5b0492506004810190505b6064831061182d5760648381611823576118226123f4565b5b0492506002810190505b600a831061183c576001810190505b80915050919050565b6000604051905090565b600080fd5b600080fd5b60007fffffffff0000000000000000000000000000000000000000000000000000000082169050919050565b61188e81611859565b811461189957600080fd5b50565b6000813590506118ab81611885565b92915050565b6000602082840312156118c7576118c661184f565b5b60006118d58482850161189c565b91505092915050565b60008115159050919050565b6118f3816118de565b82525050565b600060208201905061190e60008301846118ea565b92915050565b600081519050919050565b600082825260208201905092915050565b60005b8381101561194e578082015181840152602081019050611933565b60008484015250505050565b6000601f19601f8301169050919050565b600061197682611914565b611980818561191f565b9350611990818560208601611930565b6119998161195a565b840191505092915050565b600060208201905081810360008301526119be818461196b565b905092915050565b6000819050919050565b6119d9816119c6565b81146119e457600080fd5b50565b6000813590506119f6816119d0565b92915050565b600060208284031215611a1257611a1161184f565b5b6000611a20848285016119e7565b91505092915050565b600073ffffffffffffffffffffffffffffffffffffffff82169050919050565b6000611a5482611a29565b9050919050565b611a6481611a49565b82525050565b6000602082019050611a7f6000830184611a5b565b92915050565b611a8e81611a49565b8114611a9957600080fd5b50565b600081359050611aab81611a85565b92915050565b60008060408385031215611ac857611ac761184f565b5b6000611ad685828601611a9c565b9250506020611ae7858286016119e7565b9150509250929050565b600080600060608486031215611b0a57611b0961184f565b5b6000611b1886828701611a9c565b9350506020611b2986828701611a9c565b9250506040611b3a868287016119e7565b9150509250925092565b600060208284031215611b5a57611b5961184f565b5b6000611b6884828501611a9c565b91505092915050565b611b7a816119c6565b82525050565b6000602082019050611b956000830184611b71565b92915050565b611ba4816118de565b8114611baf57600080fd5b50565b600081359050611bc181611b9b565b92915050565b60008060408385031215611bde57611bdd61184f565b5b6000611bec85828601611a9c565b9250506020611bfd85828601611bb2565b9150509250929050565b600080fd5b600080fd5b7f4e487b7100000000000000000000000000000000000000000000000000000000600052604160045260246000fd5b611c498261195a565b810181811067ffffffffffffffff82111715611c6857611c67611c11565b5b80604052505050565b6000611c7b611845565b9050611c878282611c40565b919050565b600067ffffffffffffffff821115611ca757611ca6611c11565b5b611cb08261195a565b9050602081019050919050565b82818337600083830152505050565b6000611cdf611cda84611c8c565b611c71565b905082815260208101848484011115611cfb57611cfa611c0c565b5b611d06848285611cbd565b509392505050565b600082601f830112611d2357611d22611c07565b5b8135611d33848260208601611ccc565b91505092915050565b60008060008060808587031215611d5657611d5561184f565b5b6000611d6487828801611a9c565b9450506020611d7587828801611a9c565b9350506040611d86878288016119e7565b925050606085013567ffffffffffffffff811115611da757611da6611854565b5b611db387828801611d0e565b91505092959194509250565b600067ffffffffffffffff821115611dda57611dd9611c11565b5b611de38261195a565b9050602081019050919050565b6000611e03611dfe84611dbf565b611c71565b905082815260208101848484011115611e1f57611e1e611c0c565b5b611e2a848285611cbd565b509392505050565b600082601f830112611e4757611e46611c07565b5b8135611e57848260208601611df0565b91505092915050565b60008060408385031215611e7757611e7661184f565b5b6000611e8585828601611a9c565b925050602083013567ffffffffffffffff811115611ea657611ea5611854565b5b611eb285828601611e32565b9150509250929050565b60008060408385031215611ed357611ed261184f565b5b6000611ee185828601611a9c565b9250506020611ef285828601611a9c565b9150509250929050565b7f4e487b7100000000000000000000000000000000000000000000000000000000600052602260045260246000fd5b60006002820490506001821680611f4357607f821691505b602082108103611f5657611f55611efc565b5b50919050565b6000606082019050611f716000830186611a5b565b611f7e6020830185611b71565b611f8b6040830184611a5b565b949350505050565b7f4e487b7100000000000000000000000000000000000000000000000000000000600052601160045260246000fd5b6000611fcd826119c6565b91507fffffffffffffffffffffffffffffffffffffffffffffffffffffffffffffffff8203611fff57611ffe611f93565b5b600182019050919050565b600081519050919050565b600082825260208201905092915050565b60006120318261200a565b61203b8185612015565b935061204b818560208601611930565b6120548161195a565b840191505092915050565b60006080820190506120746000830187611a5b565b6120816020830186611a5b565b61208e6040830185611b71565b81810360608301526120a08184612026565b905095945050505050565b6000815190506120ba81611885565b92915050565b6000602082840312156120d6576120d561184f565b5b60006120e4848285016120ab565b91505092915050565b600081905092915050565b600061210382611914565b61210d81856120ed565b935061211d818560208601611930565b80840191505092915050565b600061213582856120f8565b915061214182846120f8565b91508190509392505050565b60008190508160005260206000209050919050565b60006020601f8301049050919050565b600082821b905092915050565b6000600883026121af7fffffffffffffffffffffffffffffffffffffffffffffffffffffffffffffffff82612172565b6121b98683612172565b95508019841693508086168417925050509392505050565b6000819050919050565b60006121f66121f16121ec846119c6565b6121d1565b6119c6565b9050919050565b6000819050919050565b612210836121db565b61222461221c826121fd565b84845461217f565b825550505050565b600090565b61223961222c565b612244818484612207565b505050565b5b818110156122685761225d600082612231565b60018101905061224a565b5050565b601f8211156122ad5761227e8161214d565b61228784612162565b81016020851015612296578190505b6122aa6122a285612162565b830182612249565b50505b505050565b600082821c905092915050565b60006122d0600019846008026122b2565b1980831691505092915050565b60006122e983836122bf565b9150826002028217905092915050565b61230282611914565b67ffffffffffffffff81111561231b5761231a611c11565b5b6123258254611f2b565b61233082828561226c565b600060209050601f8311600181146123635760008415612351578287015190505b61235b85826122dd565b8655506123c3565b601f1984166123718661214d565b60005b8281101561239957848901518255600182019150602085019450602081019050612374565b868310156123b657848901516123b2601f8916826122bf565b8355505b6001600288020188555050505b505050505050565b60006040820190506123e06000830185611a5b565b6123ed6020830184611b71565b9392505050565b7f4e487b7100000000000000000000000000000000000000000000000000000000600052601260045260246000fdfea2646970667358221220ba3ec9a646c4624471ee3834cba3ddf9bf9e0eef5556a900de0334a9c6a863a364736f6c634300081b0033",
    "linkReferences": {},
    "deployedLinkReferences": {}
}