{
    "_format": "hh-sol-artifact-1",
    "contractName": "MultiToken",
    "sourceName": "contracts/MultiToken.sol",
    "abi": [
        {
            "inputs": [
                {
                    "internalType": "string",
                    "name": "baseURI",
                    "type": "string"
                }
            ],
            "stateMutability": "nonpayable",
            "type": "constructor"
        },
        {
            "inputs": [
                {
                    "internalType": "address",
                    "name": "sender",
                    "type": "address"
                },
                {
                    "internalType": "uint256",
                    "name": "balance",
                    "type": "uint256"
                },
                {
                    "internalType": "uint256",
                    "name": "needed",
                    "type": "uint256"
                },
                {
                    "internalType": "uint256",
                    "name": "tokenId",
                    "type": "uint256"
                }
            ],
            "name": "ERC1155InsufficientBalance",
            "type": "error"
        },
        {
            "inputs": [
                {
                    "internalType": "address",
                    "name": "approver",
                    "type": "address"
                }
            ],
            "name": "ERC1155InvalidApprover",
            "type": "error"
        },
        {
            "inputs": [
                {
                    "internalType": "uint256",
                    "name": "idsLength",
                    "type": "uint256"
                },
                {
                    "internalType": "uint256",
                    "name": "valuesLength",
                    "type": "uint256"
                }
            ],
            "name": "ERC1155InvalidArrayLength",
            "type": "error"
        },
        {
            "inputs": [
                {
                    "internalType": "address",
                    "name": "operator",
                    "type": "address"
                }
            ],
            "name": "ERC1155InvalidOperator",
            "type": "error"
        },
        {
            "inputs": [
                {
                    "internalType": "address",
                    "name": "receiver",
                    "type": "address"
                }
            ],
            "name": "ERC1155InvalidReceiver",
            "type": "error"
        },
        {
            "inputs": [
                {
                    "internalType": "address",
                    "name": "sender",
                    "type": "address"
                }
            ],
            "name": "ERC1155InvalidSender",
            "type": "error"
        },
        {
            "inputs": [
                {
                    "internalType": "address",
                    "name": "operator",
                    "type": "address"
                },
                {
                    "internalType": "address",
                    "name": "owner",
                    "type": "address"
                }
            ],
            "name": "ERC1155MissingApprovalForAll",
            "type": "error"
        },
        {
            "anonymous": false,
            "inputs": [
                {
                    "indexed": true,
                    "internalType": "address",
                    "name": "account",
                    "type": "address"
                },
                {
                    "indexed": true,
                    "internalType": "address",
                    "name": "operator",
                    "type": "address"
                },
                {
                    "indexed": false,
                    "internalType": "bool",
                    "name": "approved",
                    "type": "bool"
                }
            ],
            "name": "ApprovalForAll",
            "type": "event"
        },
        {
            "anonymous": false,
            "inputs": [
                {
                    "indexed": true,
                    "internalType": "address",
                    "name": "operator",
                    "type": "address"
                },
                {
                    "indexed": true,
                    "internalType": "address",
                    "name": "from",
                    "type": "address"
                },
                {
                    "indexed": true,
                    "internalType": "address",
                    "name": "to",
                    "type": "address"
                },
                {
                    "indexed": false,
                    "internalType": "uint256[]",
                    "name": "ids",
                    "type": "uint256[]"
                },
                {
                    "indexed": false,
                    "internalType": "uint256[]",
                    "name": "values",
                    "type": "uint256[]"
                }
            ],
            "name": "TransferBatch",
            "type": "event"
        },
        {
            "anonymous": false,
            "inputs": [
                {
                    "indexed": true,
                    "internalType": "address",
                    "name": "operator",
                    "type": "address"
                },
                {
                    "indexed": true,
                    "internalType": "address",
                    "name": "from",
                    "type": "address"
                },
                {
                    "indexed": true,
                    "internalType": "address",
                    "name": "to",
                    "type": "address"
                },
                {
                    "indexed": false,
                    "internalType": "uint256",
                    "name": "id",
                    "type": "uint256"
                },
                {
                    "indexed": false,
                    "internalType": "uint256",
                    "name": "value",
                    "type": "uint256"
                }
            ],
            "name": "TransferSingle",
            "type": "event"
        },
        {
            "anonymous": false,
            "inputs": [
                {
                    "indexed": false,
                    "internalType": "string",
                    "name": "value",
                    "type": "string"
                },
                {
                    "indexed": true,
                    "internalType": "uint256",
                    "name": "id",
                    "type": "uint256"
                }
            ],
            "name": "URI",
            "type": "event"
        },
        {
            "inputs": [
                {
                    "internalType": "address",
                    "name": "account",
                    "type": "address"
                },
                {
                    "internalType": "uint256",
                    "name": "id",
                    "type": "uint256"
                }
            ],
            "name": "balanceOf",
            "outputs": [
                {
                    "internalType": "uint256",
                    "name": "",
                    "type": "uint256"
                }
            ],
            "stateMutability": "view",
            "type": "function"
        },
        {
            "inputs": [
                {
                    "internalType": "address[]",
                    "name": "accounts",
                    "type": "address[]"
                },
                {
                    "internalType": "uint256[]",
                    "name": "ids",
                    "type": "uint256[]"
                }
            ],
            "name": "balanceOfBatch",
            "outputs": [
                {
                    "internalType": "uint256[]",
                    "name": "",
                    "type": "uint256[]"
                }
            ],
            "stateMutability": "view",
            "type": "function"
        },
        {
            "inputs": [
                {
                    "internalType": "address",
                    "name": "account",
                    "type": "address"
                },
                {
                    "internalType": "address",
                    "name": "operator",
                    "type": "address"
                }
            ],
            "name": "isApprovedForAll",
            "outputs": [
                {
                    "internalType": "bool",
                    "name": "",
                    "type": "bool"
                }
            ],
            "stateMutability": "view",
            "type": "function"
        },
        {
            "inputs": [
                {
                    "internalType": "address",
                    "name": "account",
                    "type": "address"
                },
                {
                    "internalType": "uint256",
                    "name": "id",
                    "type": "uint256"
                },
                {
                    "internalType": "uint256",
                    "name": "amount",
                    "type": "uint256"
                },
                {
                    "internalType": "bytes",
                    "name": "data",
                    "type": "bytes"
                }
            ],
            "name": "mint",
            "outputs": [],
            "stateMutability": "nonpayable",
            "type": "function"
        },
        {
            "inputs": [
                {
                    "internalType": "address",
                    "name": "to",
                    "type": "address"
                },
                {
                    "internalType": "uint256[]",
                    "name": "ids",
                    "type": "uint256[]"
                },
                {
                    "internalType": "uint256[]",
                    "name": "amounts",
                    "type": "uint256[]"
                },
                {
                    "internalType": "bytes",
                    "name": "data",
                    "type": "bytes"
                }
            ],
            "name": "mintBatch",
            "outputs": [],
            "stateMutability": "nonpayable",
            "type": "function"
        },
        {
            "inputs": [
                {
                    "internalType": "address",
                    "name": "from",
                    "type": "address"
                },
                {
                    "internalType": "address",
                    "name": "to",
                    "type": "address"
                },
                {
                    "internalType": "uint256[]",
                    "name": "ids",
                    "type": "uint256[]"
                },
                {
                    "internalType": "uint256[]",
                    "name": "values",
                    "type": "uint256[]"
                },
                {
                    "internalType": "bytes",
                    "name": "data",
                    "type": "bytes"
                }
            ],
            "name": "safeBatchTransferFrom",
            "outputs": [],
            "stateMutability": "nonpayable",
            "type": "function"
        },
        {
            "inputs": [
                {
                    "internalType": "address",
                    "name": "from",
                    "type": "address"
                },
                {
                    "internalType": "address",
                    "name": "to",
                    "type": "address"
                },
                {
                    "internalType": "uint256",
                    "name": "id",
                    "type": "uint256"
                },
                {
                    "internalType": "uint256",
                    "name": "value",
                    "type": "uint256"
                },
                {
                    "internalType": "bytes",
                    "name": "data",
                    "type": "bytes"
                }
            ],
            "name": "safeTransferFrom",
            "outputs": [],
            "stateMutability": "nonpayable",
            "type": "function"
        },
        {
            "inputs": [
                {
                    "internalType": "address",
                    "name": "operator",
                    "type": "address"
                },
                {
                    "internalType": "bool",
                    "name": "approved",
                    "type": "bool"
                }
            ],
            "name": "setApprovalForAll",
            "outputs": [],
            "stateMutability": "nonpayable",
            "type": "function"
        },
        {
            "inputs": [
                {
                    "internalType": "bytes4",
                    "name": "interfaceId",
                    "type": "bytes4"
                }
            ],
            "name": "supportsInterface",
            "outputs": [
                {
                    "internalType": "bool",
                    "name": "",
                    "type": "bool"
                }
            ],
            "stateMutability": "view",
            "type": "function"
        },
        {
            "inputs": [
                {
                    "internalType": "uint256",
                    "name": "",
                    "type": "uint256"
                }
            ],
            "name": "uri",
            "outputs": [
                {
                    "internalType": "string",
                    "name": "",
                    "type": "string"
                }
            ],
            "stateMutability": "view",
            "type": "function"
        }
    ],
    "bytecode": "0x6080604052600b600355602c60045534801561001a57600080fd5b506040516126e63803806126e6833981810160405281019061003c91906101db565b8061004c8161005360201b60201c565b5050610517565b80600290816100629190610445565b5050565b6000604051905090565b600080fd5b600080fd5b600080fd5b600080fd5b6000601f19601f8301169050919050565b7f4e487b7100000000000000000000000000000000000000000000000000000000600052604160045260246000fd5b6100cd82610084565b810181811067ffffffffffffffff821117156100ec576100eb610095565b5b80604052505050565b60006100ff610066565b905061010b82826100c4565b919050565b600067ffffffffffffffff82111561012b5761012a610095565b5b61013482610084565b9050602081019050919050565b60005b8381101561015f578082015181840152602081019050610144565b60008484015250505050565b600061017e61017984610110565b6100f5565b90508281526020810184848401111561019a5761019961007f565b5b6101a5848285610141565b509392505050565b600082601f8301126101c2576101c161007a565b5b81516101d284826020860161016b565b91505092915050565b6000602082840312156101f1576101f0610070565b5b600082015167ffffffffffffffff81111561020f5761020e610075565b5b61021b848285016101ad565b91505092915050565b600081519050919050565b7f4e487b7100000000000000000000000000000000000000000000000000000000600052602260045260246000fd5b6000600282049050600182168061027657607f821691505b6020821081036102895761028861022f565b5b50919050565b60008190508160005260206000209050919050565b60006020601f8301049050919050565b600082821b905092915050565b6000600883026102f17fffffffffffffffffffffffffffffffffffffffffffffffffffffffffffffffff826102b4565b6102fb86836102b4565b95508019841693508086168417925050509392505050565b6000819050919050565b6000819050919050565b600061034261033d61033884610313565b61031d565b610313565b9050919050565b6000819050919050565b61035c83610327565b61037061036882610349565b8484546102c1565b825550505050565b600090565b610385610378565b610390818484610353565b505050565b5b818110156103b4576103a960008261037d565b600181019050610396565b5050565b601f8211156103f9576103ca8161028f565b6103d3846102a4565b810160208510156103e2578190505b6103f66103ee856102a4565b830182610395565b50505b505050565b600082821c905092915050565b600061041c600019846008026103fe565b1980831691505092915050565b6000610435838361040b565b9150826002028217905092915050565b61044e82610224565b67ffffffffffffffff81111561046757610466610095565b5b610471825461025e565b61047c8282856103b8565b600060209050601f8311600181146104af576000841561049d578287015190505b6104a78582610429565b86555061050f565b601f1984166104bd8661028f565b60005b828110156104e5578489015182556001820191506020850194506020810190506104c0565b8683101561050257848901516104fe601f89168261040b565b8355505b6001600288020188555050505b505050505050565b6121c0806105266000396000f3fe608060405234801561001057600080fd5b506004361061009d5760003560e01c80634e1273f4116100665780634e1273f41461016a578063731133e91461019a578063a22cb465146101b6578063e985e9c5146101d2578063f242432a146102025761009d565b8062fdd58e146100a257806301ffc9a7146100d25780630e89341c146101025780631f7fdffa146101325780632eb2c2d61461014e575b600080fd5b6100bc60048036038101906100b791906114db565b61021e565b6040516100c9919061152a565b60405180910390f35b6100ec60048036038101906100e7919061159d565b610278565b6040516100f991906115e5565b60405180910390f35b61011c60048036038101906101179190611600565b61035a565b60405161012991906116bd565b60405180910390f35b61014c600480360381019061014791906118dc565b6103ee565b005b61016860048036038101906101639190611997565b610400565b005b610184600480360381019061017f9190611b29565b6104a8565b6040516101919190611c5f565b60405180910390f35b6101b460048036038101906101af9190611c81565b6105b1565b005b6101d060048036038101906101cb9190611d30565b6105c3565b005b6101ec60048036038101906101e79190611d70565b6105d9565b6040516101f991906115e5565b60405180910390f35b61021c60048036038101906102179190611db0565b61066d565b005b600080600083815260200190815260200160002060008473ffffffffffffffffffffffffffffffffffffffff1673ffffffffffffffffffffffffffffffffffffffff16815260200190815260200160002054905092915050565b60007fd9b67a26000000000000000000000000000000000000000000000000000000007bffffffffffffffffffffffffffffffffffffffffffffffffffffffff1916827bffffffffffffffffffffffffffffffffffffffffffffffffffffffff1916148061034357507f0e89341c000000000000000000000000000000000000000000000000000000007bffffffffffffffffffffffffffffffffffffffffffffffffffffffff1916827bffffffffffffffffffffffffffffffffffffffffffffffffffffffff1916145b80610353575061035282610715565b5b9050919050565b60606002805461036990611e76565b80601f016020809104026020016040519081016040528092919081815260200182805461039590611e76565b80156103e25780601f106103b7576101008083540402835291602001916103e2565b820191906000526020600020905b8154815290600101906020018083116103c557829003601f168201915b50505050509050919050565b6103fa8484848461077f565b50505050565b600061040a610805565b90508073ffffffffffffffffffffffffffffffffffffffff168673ffffffffffffffffffffffffffffffffffffffff161415801561044f575061044d86826105d9565b155b156104935780866040517fe237d92200000000000000000000000000000000000000000000000000000000815260040161048a929190611eb6565b60405180910390fd5b6104a0868686868661080d565b505050505050565b606081518351146104f457815183516040517f5b0599910000000000000000000000000000000000000000000000000000000081526004016104eb929190611edf565b60405180910390fd5b6000835167ffffffffffffffff811115610511576105106116e4565b5b60405190808252806020026020018201604052801561053f5781602001602082028036833780820191505090505b50905060005b84518110156105a65761057c610564828761090590919063ffffffff16565b610577838761091990919063ffffffff16565b61021e565b82828151811061058f5761058e611f08565b5b602002602001018181525050806001019050610545565b508091505092915050565b6105bd8484848461092d565b50505050565b6105d56105ce610805565b83836109c6565b5050565b6000600160008473ffffffffffffffffffffffffffffffffffffffff1673ffffffffffffffffffffffffffffffffffffffff16815260200190815260200160002060008373ffffffffffffffffffffffffffffffffffffffff1673ffffffffffffffffffffffffffffffffffffffff16815260200190815260200160002060009054906101000a900460ff16905092915050565b6000610677610805565b90508073ffffffffffffffffffffffffffffffffffffffff168673ffffffffffffffffffffffffffffffffffffffff16141580156106bc57506106ba86826105d9565b155b156107005780866040517fe237d9220000000000000000000000000000000000000000000000000000000081526004016106f7929190611eb6565b60405180910390fd5b61070d8686868686610b36565b505050505050565b60007f01ffc9a7000000000000000000000000000000000000000000000000000000007bffffffffffffffffffffffffffffffffffffffffffffffffffffffff1916827bffffffffffffffffffffffffffffffffffffffffffffffffffffffff1916149050919050565b600073ffffffffffffffffffffffffffffffffffffffff168473ffffffffffffffffffffffffffffffffffffffff16036107f15760006040517f57f447ce0000000000000000000000000000000000000000000000000000000081526004016107e89190611f37565b60405180910390fd5b6107ff600085858585610c41565b50505050565b600033905090565b600073ffffffffffffffffffffffffffffffffffffffff168473ffffffffffffffffffffffffffffffffffffffff160361087f5760006040517f57f447ce0000000000000000000000000000000000000000000000000000000081526004016108769190611f37565b60405180910390fd5b600073ffffffffffffffffffffffffffffffffffffffff168573ffffffffffffffffffffffffffffffffffffffff16036108f15760006040517f01a835140000000000000000000000000000000000000000000000000000000081526004016108e89190611f37565b60405180910390fd5b6108fe8585858585610c41565b5050505050565b600060208202602084010151905092915050565b600060208202602084010151905092915050565b600073ffffffffffffffffffffffffffffffffffffffff168473ffffffffffffffffffffffffffffffffffffffff160361099f5760006040517f57f447ce0000000000000000000000000000000000000000000000000000000081526004016109969190611f37565b60405180910390fd5b6000806109ac8585610cf3565b915091506109be600087848487610c41565b505050505050565b600073ffffffffffffffffffffffffffffffffffffffff168273ffffffffffffffffffffffffffffffffffffffff1603610a385760006040517fced3e100000000000000000000000000000000000000000000000000000000008152600401610a2f9190611f37565b60405180910390fd5b80600160008573ffffffffffffffffffffffffffffffffffffffff1673ffffffffffffffffffffffffffffffffffffffff16815260200190815260200160002060008473ffffffffffffffffffffffffffffffffffffffff1673ffffffffffffffffffffffffffffffffffffffff16815260200190815260200160002060006101000a81548160ff0219169083151502179055508173ffffffffffffffffffffffffffffffffffffffff168373ffffffffffffffffffffffffffffffffffffffff167f17307eab39ab6107e8899845ad3d59bd9653f200f220920489ca2b5937696c3183604051610b2991906115e5565b60405180910390a3505050565b600073ffffffffffffffffffffffffffffffffffffffff168473ffffffffffffffffffffffffffffffffffffffff1603610ba85760006040517f57f447ce000000000000000000000000000000000000000000000000000000008152600401610b9f9190611f37565b60405180910390fd5b600073ffffffffffffffffffffffffffffffffffffffff168573ffffffffffffffffffffffffffffffffffffffff1603610c1a5760006040517f01a83514000000000000000000000000000000000000000000000000000000008152600401610c119190611f37565b60405180910390fd5b600080610c278585610cf3565b91509150610c388787848487610c41565b50505050505050565b610c4d85858585610d23565b600073ffffffffffffffffffffffffffffffffffffffff168473ffffffffffffffffffffffffffffffffffffffff1614610cec576000610c8b610805565b90506001845103610cdb576000610cac60008661091990919063ffffffff16565b90506000610cc460008661091990919063ffffffff16565b9050610cd48389898585896110cb565b5050610cea565b610ce981878787878761127f565b5b505b5050505050565b60608060405191506001825283602083015260408201905060018152826020820152604081016040529250929050565b8051825114610d6d57815181516040517f5b059991000000000000000000000000000000000000000000000000000000008152600401610d64929190611edf565b60405180910390fd5b6000610d77610805565b905060005b8351811015610f86576000610d9a828661091990919063ffffffff16565b90506000610db1838661091990919063ffffffff16565b9050600073ffffffffffffffffffffffffffffffffffffffff168873ffffffffffffffffffffffffffffffffffffffff1614610ede57600080600084815260200190815260200160002060008a73ffffffffffffffffffffffffffffffffffffffff1673ffffffffffffffffffffffffffffffffffffffff16815260200190815260200160002054905081811015610e8657888183856040517f03dee4c5000000000000000000000000000000000000000000000000000000008152600401610e7d9493929190611f52565b60405180910390fd5b81810360008085815260200190815260200160002060008b73ffffffffffffffffffffffffffffffffffffffff1673ffffffffffffffffffffffffffffffffffffffff16815260200190815260200160002081905550505b600073ffffffffffffffffffffffffffffffffffffffff168773ffffffffffffffffffffffffffffffffffffffff1614610f79578060008084815260200190815260200160002060008973ffffffffffffffffffffffffffffffffffffffff1673ffffffffffffffffffffffffffffffffffffffff1681526020019081526020016000206000828254610f719190611fc6565b925050819055505b5050806001019050610d7c565b506001835103611045576000610fa660008561091990919063ffffffff16565b90506000610fbe60008561091990919063ffffffff16565b90508573ffffffffffffffffffffffffffffffffffffffff168773ffffffffffffffffffffffffffffffffffffffff168473ffffffffffffffffffffffffffffffffffffffff167fc3d58168c5ae7397731d063d5bbf3d657854427343f4c083240f7aacaa2d0f628585604051611036929190611edf565b60405180910390a450506110c4565b8373ffffffffffffffffffffffffffffffffffffffff168573ffffffffffffffffffffffffffffffffffffffff168273ffffffffffffffffffffffffffffffffffffffff167f4a39dc06d4c0dbc64b70af90fd698a233a518aa5d07e595d983b8c0526c8f7fb86866040516110bb929190611ffa565b60405180910390a45b5050505050565b60008473ffffffffffffffffffffffffffffffffffffffff163b1115611277578373ffffffffffffffffffffffffffffffffffffffff1663f23a6e6187878686866040518663ffffffff1660e01b815260040161112c959493929190612086565b6020604051808303816000875af192505050801561116857506040513d601f19601f8201168201806040525081019061116591906120f5565b60015b6111ec573d8060008114611198576040519150601f19603f3d011682016040523d82523d6000602084013e61119d565b606091505b5060008151036111e457846040517f57f447ce0000000000000000000000000000000000000000000000000000000081526004016111db9190611f37565b60405180910390fd5b805181602001fd5b63f23a6e6160e01b7bffffffffffffffffffffffffffffffffffffffffffffffffffffffff1916817bffffffffffffffffffffffffffffffffffffffffffffffffffffffff19161461127557846040517f57f447ce00000000000000000000000000000000000000000000000000000000815260040161126c9190611f37565b60405180910390fd5b505b505050505050565b60008473ffffffffffffffffffffffffffffffffffffffff163b111561142b578373ffffffffffffffffffffffffffffffffffffffff1663bc197c8187878686866040518663ffffffff1660e01b81526004016112e0959493929190612122565b6020604051808303816000875af192505050801561131c57506040513d601f19601f8201168201806040525081019061131991906120f5565b60015b6113a0573d806000811461134c576040519150601f19603f3d011682016040523d82523d6000602084013e611351565b606091505b50600081510361139857846040517f57f447ce00000000000000000000000000000000000000000000000000000000815260040161138f9190611f37565b60405180910390fd5b805181602001fd5b63bc197c8160e01b7bffffffffffffffffffffffffffffffffffffffffffffffffffffffff1916817bffffffffffffffffffffffffffffffffffffffffffffffffffffffff19161461142957846040517f57f447ce0000000000000000000000000000000000000000000000000000000081526004016114209190611f37565b60405180910390fd5b505b505050505050565b6000604051905090565b600080fd5b600080fd5b600073ffffffffffffffffffffffffffffffffffffffff82169050919050565b600061147282611447565b9050919050565b61148281611467565b811461148d57600080fd5b50565b60008135905061149f81611479565b92915050565b6000819050919050565b6114b8816114a5565b81146114c357600080fd5b50565b6000813590506114d5816114af565b92915050565b600080604083850312156114f2576114f161143d565b5b600061150085828601611490565b9250506020611511858286016114c6565b9150509250929050565b611524816114a5565b82525050565b600060208201905061153f600083018461151b565b92915050565b60007fffffffff0000000000000000000000000000000000000000000000000000000082169050919050565b61157a81611545565b811461158557600080fd5b50565b60008135905061159781611571565b92915050565b6000602082840312156115b3576115b261143d565b5b60006115c184828501611588565b91505092915050565b60008115159050919050565b6115df816115ca565b82525050565b60006020820190506115fa60008301846115d6565b92915050565b6000602082840312156116165761161561143d565b5b6000611624848285016114c6565b91505092915050565b600081519050919050565b600082825260208201905092915050565b60005b8381101561166757808201518184015260208101905061164c565b60008484015250505050565b6000601f19601f8301169050919050565b600061168f8261162d565b6116998185611638565b93506116a9818560208601611649565b6116b281611673565b840191505092915050565b600060208201905081810360008301526116d78184611684565b905092915050565b600080fd5b7f4e487b7100000000000000000000000000000000000000000000000000000000600052604160045260246000fd5b61171c82611673565b810181811067ffffffffffffffff8211171561173b5761173a6116e4565b5b80604052505050565b600061174e611433565b905061175a8282611713565b919050565b600067ffffffffffffffff82111561177a576117796116e4565b5b602082029050602081019050919050565b600080fd5b60006117a361179e8461175f565b611744565b905080838252602082019050602084028301858111156117c6576117c561178b565b5b835b818110156117ef57806117db88826114c6565b8452602084019350506020810190506117c8565b5050509392505050565b600082601f83011261180e5761180d6116df565b5b813561181e848260208601611790565b91505092915050565b600080fd5b600067ffffffffffffffff821115611847576118466116e4565b5b61185082611673565b9050602081019050919050565b82818337600083830152505050565b600061187f61187a8461182c565b611744565b90508281526020810184848401111561189b5761189a611827565b5b6118a684828561185d565b509392505050565b600082601f8301126118c3576118c26116df565b5b81356118d384826020860161186c565b91505092915050565b600080600080608085870312156118f6576118f561143d565b5b600061190487828801611490565b945050602085013567ffffffffffffffff81111561192557611924611442565b5b611931878288016117f9565b935050604085013567ffffffffffffffff81111561195257611951611442565b5b61195e878288016117f9565b925050606085013567ffffffffffffffff81111561197f5761197e611442565b5b61198b878288016118ae565b91505092959194509250565b600080600080600060a086880312156119b3576119b261143d565b5b60006119c188828901611490565b95505060206119d288828901611490565b945050604086013567ffffffffffffffff8111156119f3576119f2611442565b5b6119ff888289016117f9565b935050606086013567ffffffffffffffff811115611a2057611a1f611442565b5b611a2c888289016117f9565b925050608086013567ffffffffffffffff811115611a4d57611a4c611442565b5b611a59888289016118ae565b9150509295509295909350565b600067ffffffffffffffff821115611a8157611a806116e4565b5b602082029050602081019050919050565b6000611aa5611aa084611a66565b611744565b90508083825260208201905060208402830185811115611ac857611ac761178b565b5b835b81811015611af15780611add8882611490565b845260208401935050602081019050611aca565b5050509392505050565b600082601f830112611b1057611b0f6116df565b5b8135611b20848260208601611a92565b91505092915050565b60008060408385031215611b4057611b3f61143d565b5b600083013567ffffffffffffffff811115611b5e57611b5d611442565b5b611b6a85828601611afb565b925050602083013567ffffffffffffffff811115611b8b57611b8a611442565b5b611b97858286016117f9565b9150509250929050565b600081519050919050565b600082825260208201905092915050565b6000819050602082019050919050565b611bd6816114a5565b82525050565b6000611be88383611bcd565b60208301905092915050565b6000602082019050919050565b6000611c0c82611ba1565b611c168185611bac565b9350611c2183611bbd565b8060005b83811015611c52578151611c398882611bdc565b9750611c4483611bf4565b925050600181019050611c25565b5085935050505092915050565b60006020820190508181036000830152611c798184611c01565b905092915050565b60008060008060808587031215611c9b57611c9a61143d565b5b6000611ca987828801611490565b9450506020611cba878288016114c6565b9350506040611ccb878288016114c6565b925050606085013567ffffffffffffffff811115611cec57611ceb611442565b5b611cf8878288016118ae565b91505092959194509250565b611d0d816115ca565b8114611d1857600080fd5b50565b600081359050611d2a81611d04565b92915050565b60008060408385031215611d4757611d4661143d565b5b6000611d5585828601611490565b9250506020611d6685828601611d1b565b9150509250929050565b60008060408385031215611d8757611d8661143d565b5b6000611d9585828601611490565b9250506020611da685828601611490565b9150509250929050565b600080600080600060a08688031215611dcc57611dcb61143d565b5b6000611dda88828901611490565b9550506020611deb88828901611490565b9450506040611dfc888289016114c6565b9350506060611e0d888289016114c6565b925050608086013567ffffffffffffffff811115611e2e57611e2d611442565b5b611e3a888289016118ae565b9150509295509295909350565b7f4e487b7100000000000000000000000000000000000000000000000000000000600052602260045260246000fd5b60006002820490506001821680611e8e57607f821691505b602082108103611ea157611ea0611e47565b5b50919050565b611eb081611467565b82525050565b6000604082019050611ecb6000830185611ea7565b611ed86020830184611ea7565b9392505050565b6000604082019050611ef4600083018561151b565b611f01602083018461151b565b9392505050565b7f4e487b7100000000000000000000000000000000000000000000000000000000600052603260045260246000fd5b6000602082019050611f4c6000830184611ea7565b92915050565b6000608082019050611f676000830187611ea7565b611f74602083018661151b565b611f81604083018561151b565b611f8e606083018461151b565b95945050505050565b7f4e487b7100000000000000000000000000000000000000000000000000000000600052601160045260246000fd5b6000611fd1826114a5565b9150611fdc836114a5565b9250828201905080821115611ff457611ff3611f97565b5b92915050565b600060408201905081810360008301526120148185611c01565b905081810360208301526120288184611c01565b90509392505050565b600081519050919050565b600082825260208201905092915050565b600061205882612031565b612062818561203c565b9350612072818560208601611649565b61207b81611673565b840191505092915050565b600060a08201905061209b6000830188611ea7565b6120a86020830187611ea7565b6120b5604083018661151b565b6120c2606083018561151b565b81810360808301526120d4818461204d565b90509695505050505050565b6000815190506120ef81611571565b92915050565b60006020828403121561210b5761210a61143d565b5b6000612119848285016120e0565b91505092915050565b600060a0820190506121376000830188611ea7565b6121446020830187611ea7565b81810360408301526121568186611c01565b9050818103606083015261216a8185611c01565b9050818103608083015261217e818461204d565b9050969550505050505056fea26469706673582212201ee23956c880b7038aa258ef14b4e3513a71a9e224c0863789bc42fb78af123b64736f6c634300081b0033",
    "linkReferences": {},
    "deployedLinkReferences": {}
}